{
  "contractName": "Board",
  "abi": [
    {
      "inputs": [
        {
          "internalType": "bool",
          "name": "_debugMode",
          "type": "bool"
        }
      ],
      "payable": false,
      "stateMutability": "nonpayable",
      "type": "constructor"
    },
    {
      "constant": true,
      "inputs": [
        {
          "internalType": "int8",
          "name": "x",
          "type": "int8"
        },
        {
          "internalType": "int8",
          "name": "y",
          "type": "int8"
        }
      ],
      "name": "getTile",
      "outputs": [
        {
          "internalType": "uint8",
          "name": "value",
          "type": "uint8"
        }
      ],
      "payable": false,
      "stateMutability": "view",
      "type": "function"
    },
    {
      "constant": true,
      "inputs": [],
      "name": "getTiles",
      "outputs": [
        {
          "internalType": "uint8[64]",
          "name": "board",
          "type": "uint8[64]"
        }
      ],
      "payable": false,
      "stateMutability": "view",
      "type": "function"
    },
    {
      "constant": true,
      "inputs": [
        {
          "internalType": "int8",
          "name": "x",
          "type": "int8"
        },
        {
          "internalType": "int8",
          "name": "y",
          "type": "int8"
        },
        {
          "internalType": "bool",
          "name": "isWhite",
          "type": "bool"
        }
      ],
      "name": "isValidMove",
      "outputs": [
        {
          "internalType": "bool",
          "name": "",
          "type": "bool"
        }
      ],
      "payable": false,
      "stateMutability": "view",
      "type": "function"
    },
    {
      "constant": true,
      "inputs": [],
      "name": "_getValidMoves",
      "outputs": [
        {
          "internalType": "bool[64]",
          "name": "validMoves",
          "type": "bool[64]"
        },
        {
          "internalType": "bool",
          "name": "whiteToMove",
          "type": "bool"
        }
      ],
      "payable": false,
      "stateMutability": "view",
      "type": "function"
    },
    {
      "constant": false,
      "inputs": [],
      "name": "disableDebug",
      "outputs": [],
      "payable": false,
      "stateMutability": "nonpayable",
      "type": "function"
    },
    {
      "constant": false,
      "inputs": [
        {
          "internalType": "uint128",
          "name": "state",
          "type": "uint128"
        },
        {
          "internalType": "address",
          "name": "blackAddress",
          "type": "address"
        },
        {
          "internalType": "address",
          "name": "whiteAddress",
          "type": "address"
        },
        {
          "internalType": "bool",
          "name": "_isWhiteTurn",
          "type": "bool"
        },
        {
          "internalType": "bool",
          "name": "_isNewGame",
          "type": "bool"
        }
      ],
      "name": "call_initializeBoard",
      "outputs": [],
      "payable": false,
      "stateMutability": "nonpayable",
      "type": "function"
    },
    {
      "constant": false,
      "inputs": [
        {
          "internalType": "int8",
          "name": "x",
          "type": "int8"
        },
        {
          "internalType": "int8",
          "name": "y",
          "type": "int8"
        }
      ],
      "name": "call_playMove",
      "outputs": [],
      "payable": false,
      "stateMutability": "nonpayable",
      "type": "function"
    }
  ],
  "bytecode": "0x608060405234801561001057600080fd5b50604051610fd1380380610fd18339818101604052602081101561003357600080fd5b810190808051906020019092919050505080600260116101000a81548160ff02191690831515021790555050610f638061006e6000396000f3fe608060405234801561001057600080fd5b506004361061007d5760003560e01c80638de194821161005b5780638de194821461015757806390117d2a146101af578063b8b3413214610211578063cccad90d1461021b5761007d565b80631d3a01c61461008257806335300261146100c85780634c975ac614610119575b600080fd5b61008a6102b3565b6040518082604060200280838360005b838110156100b557808201518184015260208101905061009a565b5050505090500191505060405180910390f35b6100d0610356565b6040518083604060200280838360005b838110156100fb5780820151818401526020810190506100e0565b50505050905001821515151581526020019250505060405180910390f35b6101556004803603604081101561012f57600080fd5b81019080803560000b9060200190929190803560000b9060200190929190505050610408565b005b6101936004803603604081101561016d57600080fd5b81019080803560000b9060200190929190803560000b906020019092919050505061047b565b604051808260ff1660ff16815260200191505060405180910390f35b6101f7600480360360608110156101c557600080fd5b81019080803560000b9060200190929190803560000b90602001909291908035151590602001909291905050506104dc565b604051808215151515815260200191505060405180910390f35b610219610581565b005b6102b1600480360360a081101561023157600080fd5b8101908080356fffffffffffffffffffffffffffffffff169060200190929190803573ffffffffffffffffffffffffffffffffffffffff169060200190929190803573ffffffffffffffffffffffffffffffffffffffff169060200190929190803515159060200190929190803515159060200190929190505050610603565b005b6102bb610eb4565b600080905060008090505b608060ff168160ff1610156103515761031e81600260ff16600260009054906101000a90046fffffffffffffffffffffffffffffffff166fffffffffffffffffffffffffffffffff1661067c9092919063ffffffff16565b838360ff166040811061032d57fe5b602002019060ff16908160ff168152505081806001019250506002810190506102c6565b505090565b61035e610ed7565b6000806000905060008090505b600860000b8160000b12156103ea5760008090505b600860000b8160000b12156103dc576103a98183600260109054906101000a900460ff166104dc565b858460ff16604081106103b857fe5b60200201901515908115158152505082806001019350508080600101915050610380565b50808060010191505061036b565b50600260109054906101000a900460ff169150828292509250509091565b600260119054906101000a900460ff1661046d576040517f08c379a0000000000000000000000000000000000000000000000000000000008152600401808060200182810382526034815260200180610efb6034913960400191505060405180910390fd5b6104778282610714565b5050565b6000806104888484610870565b90506104d381600260ff16600260009054906101000a90046fffffffffffffffffffffffffffffffff166fffffffffffffffffffffffffffffffff1661067c9092919063ffffffff16565b91505092915050565b600080826104eb5760036104ee565b60015b90506000836104fe576001610501565b60035b905061050d86866108cc565b61051c5760009250505061057a565b600060ff1661052b878761047b565b60ff161461053e5760009250505061057a565b610549868684610927565b6105585760009250505061057a565b61056486868484610a0c565b6105735760009250505061057a565b6001925050505b9392505050565b600260119054906101000a900460ff166105e6576040517f08c379a0000000000000000000000000000000000000000000000000000000008152600401808060200182810382526034815260200180610efb6034913960400191505060405180910390fd5b6000600260116101000a81548160ff021916908315150217905550565b600260119054906101000a900460ff16610668576040517f08c379a0000000000000000000000000000000000000000000000000000000008152600401808060200182810382526034815260200180610efb6034913960400191505060405180910390fd5b6106758585858585610ad3565b5050505050565b60008161ffff166000108015610695575060808360ff16105b80156106ab57506080828460ff160161ffff1611155b6106b457600080fd5b8160800361ffff167fffffffffffffffffffffffffffffffffffffffffffffffffffffffffffffffff6fffffffffffffffffffffffffffffffff16901c8360ff16856fffffffffffffffffffffffffffffffff16901c1690509392505050565b61072e8282600260109054906101000a900460ff166104dc565b61073457fe5b6000600260109054906101000a900460ff16610751576003610754565b60015b90506000600260109054906101000a900460ff16610773576001610776565b60035b9050610783848483610c05565b60007fffffffffffffffffffffffffffffffffffffffffffffffffffffffffffffffff90505b60018160000b1361083f5760007fffffffffffffffffffffffffffffffffffffffffffffffffffffffffffffffff90505b60018160000b136108335760008260000b1480156107fb575060008160000b145b1561080557610828565b610813868684848888610cd1565b1561082757610826868684848888610da9565b5b5b6001810190506107da565b506001810190506107a9565b50600260109054906101000a900460ff1615600260106101000a81548160ff02191690831515021790555050505050565b60008260000b60001315801561088c5750600860000b8360000b125b61089257fe5b8160000b6000131580156108ac5750600860000b8260000b125b6108b257fe5b600082600802840190508060020291508191505092915050565b60008260000b600013806108e75750600860000b8360000b12155b156108f55760009050610921565b8160000b6000138061090e5750600860000b8260000b12155b1561091c5760009050610921565b600190505b92915050565b6000807fffffffffffffffffffffffffffffffffffffffffffffffffffffffffffffffff90505b60018160000b136109ff5760007fffffffffffffffffffffffffffffffffffffffffffffffffffffffffffffffff90505b60018160000b136109f35760008260000b1480156109a0575060008160000b145b156109aa576109e8565b6109b88287018287016108cc565b6109c1576109e8565b8360ff166109d383880183880161047b565b60ff1614156109e757600192505050610a05565b5b60018101905061097f565b5060018101905061094e565b50600090505b9392505050565b6000807fffffffffffffffffffffffffffffffffffffffffffffffffffffffffffffffff90505b60018160000b13610ac55760007fffffffffffffffffffffffffffffffffffffffffffffffffffffffffffffffff90505b60018160000b13610ab95760008260000b148015610a85575060008160000b145b15610a8f57610aae565b610a9d878784848989610cd1565b15610aad57600192505050610acb565b5b600181019050610a64565b50600181019050610a33565b50600090505b949350505050565b8360008060028110610ae157fe5b0160006101000a81548173ffffffffffffffffffffffffffffffffffffffff021916908373ffffffffffffffffffffffffffffffffffffffff160217905550826000600160028110610b2f57fe5b0160006101000a81548173ffffffffffffffffffffffffffffffffffffffff021916908373ffffffffffffffffffffffffffffffffffffffff16021790555084600260006101000a8154816fffffffffffffffffffffffffffffffff02191690836fffffffffffffffffffffffffffffffff16021790555081600260106101000a81548160ff0219169083151502179055508015610bfe57610bd46003806003610c05565b610be2600460036001610c05565b610bf0600360046001610c05565b610bfd6004806003610c05565b5b5050505050565b600060ff168160ff161480610c205750600160ff168160ff16145b80610c315750600360ff168160ff16145b610c3757fe5b6000610c438484610870565b9050610c9381600260ff168460ff16600260009054906101000a90046fffffffffffffffffffffffffffffffff166fffffffffffffffffffffffffffffffff16610dff909392919063ffffffff16565b600260006101000a8154816fffffffffffffffffffffffffffffffff02191690836fffffffffffffffffffffffffffffffff16021790555050505050565b6000808560000b148015610ce8575060008460000b145b15610cef57fe5b6000809050858801975084870196505b610d0988886108cc565b15610d99578015610d5f576000610d20898961047b565b90508460ff168160ff161415610d3557610d59565b8360ff168160ff161415610d4e57600192505050610d9f565b600092505050610d9f565b50610d8a565b8360ff16610d6d898961047b565b60ff161415610d7f5760019050610d89565b6000915050610d9f565b5b85880197508487019650610cff565b60009150505b9695505050505050565b838601955082850194505b610dbe86866108cc565b8015610dd857508160ff16610dd3878761047b565b60ff16145b15610df757610de8868683610c05565b83860195508285019450610db4565b505050505050565b60008261ffff166000108015610e18575060808460ff16105b8015610e2e57506080838560ff160161ffff1611155b610e3757600080fd5b600060018461ffff1660016fffffffffffffffffffffffffffffffff16901b03905060008560ff168285166fffffffffffffffffffffffffffffffff16901b905060008660ff16836fffffffffffffffffffffffffffffffff16901b90506000811990506000898216905083811795505050505050949350505050565b604051806108000160405280604090602082028038833980820191505090505090565b60405180610800016040528060409060208202803883398082019150509050509056fe436f6e7472616374206973206e6f7420696e206465627567206d6f64652c206f7065726174696f6e206e6f7420616c6c6f776564a265627a7a723158206099c2abdf3843cff1d87ebe7fd3b527ca7b71612ce5844f28f92d522d12d3fd64736f6c63430005100032",
  "source": "pragma solidity >=0.5.0 <0.6.0;\n\n// Bit manipulation library\nimport {Bits128} from \"./Bits.sol\";\n\ncontract Board {\n    \n    uint8 constant internal EMPTY = 0;\n    uint8 constant internal BLACK = 1;\n    uint8 constant internal WHITE = 3;\n    int8 constant internal BOARD_SIZE = 8;\n    uint8 constant internal BITS_PER_CELL = 2;\n    // Also equal to BOARD_SIZE * BOARD_SIZE * BITS_PER_CELL\n    uint8 constant internal BITFIELD_SIZE = 128;\n    address[2] playerAddresses;\n    uint128 internal gameState;\n    bool whitesMove;\n    bool debugMode;\n\n    // This allows us to call methods from Bits.sol on a uint128\n    using Bits128 for uint128;\n    constructor(bool _debugMode) public {\n        debugMode = _debugMode;\n    }\n\n \n    function initializeBoard(uint128 state,address blackAddress, address whiteAddress, bool _isWhiteTurn, bool _isNewGame) internal {\n        playerAddresses[0] = blackAddress;\n        playerAddresses[1] = whiteAddress;\n        // Clear board\n        gameState = state;\n        whitesMove = _isWhiteTurn;\n        // Set middle tiles\n        if(_isNewGame){\n            setTile(3, 3, WHITE);\n            setTile(4, 3, BLACK);\n            setTile(3, 4, BLACK);\n            setTile(4, 4, WHITE);\n        }\n    }\n    function getBitfieldCoordinate(int8 x, int8 y) internal pure returns (uint8 bitCoord) {\n        // Is x and y in the range 0 to 7?\n        assert(0 <= x && x < BOARD_SIZE);\n        assert(0 <= y && y < BOARD_SIZE);\n\n        // We need to take a 2-dimensional coordinate and change it into a 1-dimensional coordinate.\n        // To do this, we decide that all cells with the same y value will be next to each other,\n        // followed by the cells with the next y value. If you use x to represent the column number, and\n        // use y to represent the row number, then the cells are stored in the same order as you would\n        // read them in a book, reading right-to-left and top-to-bottom.\n\n        // Here's a diagram: https://docs.unity3d.com/StaticFiles/ScriptRefImages/RectXY.svg\n\n        // This uint8 cast is safe because x and y cannot be negative at this point\n        uint8 flatCoord = uint8(x + (BOARD_SIZE * y));\n        bitCoord = BITS_PER_CELL * flatCoord;\n        return bitCoord;\n    }\n    function setTile(int8 x, int8 y, uint8 value) internal {\n        // Is it a valid tile?\n        assert(value == EMPTY || value == BLACK || value == WHITE);\n        uint8 bitCoord = getBitfieldCoordinate(x, y);\n        gameState = gameState.setBits(bitCoord, BITS_PER_CELL, value);\n    }\n    function getTile(int8 x, int8 y) public view returns (uint8 value) {\n        uint8 bitCoord = getBitfieldCoordinate(x, y);\n        return uint8(gameState.bits(bitCoord, BITS_PER_CELL));\n    }\n    function getTiles() public view returns (uint8[64] memory board) {\n        // Return array of board values, 1 per space\n        uint8 flatCoord = 0;\n        for(uint8 bitCoord = 0; bitCoord < BITFIELD_SIZE; bitCoord += BITS_PER_CELL) {\n            board[flatCoord] = uint8(gameState.bits(bitCoord, BITS_PER_CELL));\n            flatCoord++;\n        }\n    }\n    \n    \n    function moveIsOnBoard(int8 x, int8 y) private pure returns (bool) {\n        if(0 > x || x >= BOARD_SIZE) {\n            return false;\n        }\n        if(0 > y || y >= BOARD_SIZE) {\n            return false;\n        }\n        return true;\n    }\n    function cellHasNeighboringEnemyPiece(int8 x, int8 y, uint8 enemyColor) private view returns (bool) {\n        // Search all eight neighboring spaces.\n        for(int8 delta_x = -1; delta_x <= 1; delta_x += 1) {\n            for(int8 delta_y = -1; delta_y <= 1; delta_y += 1) {\n                if(delta_x == 0 && delta_y == 0) {\n                    // This is the spot where the piece will be placed,\n                    // so don't check it.\n                    continue;\n                }\n\n                // Don't check for pieces off the board.\n                if(!moveIsOnBoard(x + delta_x, y + delta_y)) {\n                    continue;\n                }\n\n                if(getTile(x + delta_x, y + delta_y) == enemyColor) {\n                    // We found a piece, so there is an enemy piece neighboring\n                    // this square.\n                    return true;\n                }\n            }\n        }\n        // Checked all neighbors, no piece found.\n        return false;\n    }\n    function searchForCapturablePiecesInDirection(int8 x, int8 y,\n                                                  int8 delta_x, int8 delta_y,\n                                                  uint8 enemyColor, uint8 friendlyColor) private view returns (bool) {\n        // Delta value of 0,0 will cause an infinite loop.\n        assert(!(delta_x == 0 && delta_y == 0));\n\n        // Have we found an enemy piece yet?\n        bool foundEnemyPiece = false;\n\n        // x and y represent the coordinates of the piece to be placed. Add the deltas\n        // so that we take one step away from the piece-to-be-placed.\n        x += delta_x;\n        y += delta_y;\n        while(moveIsOnBoard(x, y)) {\n            if(foundEnemyPiece) {\n                // We found an enemy piece on a previous run through this loop.\n\n                uint8 tile = getTile(x, y);\n                if(tile == enemyColor) {\n                    // Found another enemy piece. Keep looping.\n                } else if(tile == friendlyColor) {\n                    // We found an enemy piece followed by a friendly piece.\n                    // We can capture.\n                    return true;\n                } else {\n                    // Found an empty space. We can't capture.\n                    return false;\n                }\n            } else {\n                // First run through the loop\n\n                if(getTile(x, y) == enemyColor) {\n                    // We found an enemy piece. We could capture it if there's a friendly piece\n                    // at the end.\n                    foundEnemyPiece = true;\n                } else {\n                    // We found a friendly piece or an empty cell, without finding any enemy pieces\n                    // in between. Therefore, we can't capture in this direction.\n                    return false;\n                }\n            }\n            x += delta_x;\n            y += delta_y;\n        }\n        // We went off the board without finding a friendly piece. Therefore, we can't capture\n        // in this direction.\n        return false;\n    }\n    function searchForCapturablePieces(int8 x, int8 y, uint8 enemyColor, uint8 friendlyColor) private view returns (bool) {\n        // Loop over all directions\n        for(int8 delta_x = -1; delta_x <= 1; delta_x += 1) {\n            for(int8 delta_y = -1; delta_y <= 1; delta_y += 1) {\n                if(delta_x == 0 && delta_y == 0) {\n                    // This direction does nothing. Skip it.\n                    continue;\n                }\n                if(searchForCapturablePiecesInDirection(x, y, delta_x, delta_y, enemyColor, friendlyColor)) {\n                    // We can capture in this direction. Since we only need to find one direction to\n                    // capture in, we're done.\n                    return true;\n                }\n            }\n        }\n        // We didn't find any pieces to capture, in any direction\n        return false;\n    }\n    function isValidMove(int8 x, int8 y, bool isWhite) public view returns (bool) {\n        uint8 enemyColor = isWhite ? BLACK : WHITE;\n        uint8 friendlyColor = isWhite ? WHITE : BLACK;\n\n        // 1. Is the move on the board? If not, illegal.\n        if(!moveIsOnBoard(x, y)) {\n            return false;\n        }\n\n        // 2. Is the space empty? If not, illegal.\n        if(getTile(x, y) != EMPTY) {\n            return false;\n        }\n\n        // 3. Is it next to another enemy piece? If not, illegal.\n        if(!cellHasNeighboringEnemyPiece(x, y, enemyColor)) {\n            return false;\n        }\n\n        // 4. Will you capture another piece if you move there? If not, illegal.\n        if(!searchForCapturablePieces(x, y, enemyColor, friendlyColor)) {\n            return false;\n        }\n        return true;\n    }\n    function _getValidMoves() public view returns (bool[64] memory validMoves, bool whiteToMove) {\n\n        // Return list of cells with valid moves.\n        uint8 i = 0;\n        for(int8 y = 0; y < BOARD_SIZE; y++) {\n            for(int8 x = 0; x < BOARD_SIZE; x++) {\n                validMoves[i] = isValidMove(x, y, whitesMove);\n                i++;\n            }\n        }\n\n        // Also tell the caller whose move it is, so they don't display legal moves for the other player.\n        whiteToMove = whitesMove;\n        return(validMoves, whiteToMove);\n    }\n    function traverseAndFlip(int8 x, int8 y,\n                             int8 delta_x, int8 delta_y,\n                             uint8 enemyColor, uint8 friendlyColor) internal {\n        // Note: This function assumes that the caller has already checked whether it is legal to\n        // capture in this direction, by using searchForCapturablePiecesInDirection().\n        x += delta_x;\n        y += delta_y;\n        while(moveIsOnBoard(x, y) && getTile(x, y) == enemyColor) {\n            setTile(x, y, friendlyColor);\n            x += delta_x;\n            y += delta_y;\n        }\n    }\n    // function playMove(int8 x, int8 y, bool isWhite) public {\n    function _playMove(int8 x, int8 y) internal {\n        assert(isValidMove(x, y, whitesMove));\n\n\n        // The move is valid, so play it. Place our tile on the board. Then, search in every direction\n        // for capturable pieces, and flip them to our color.\n        uint8 enemyColor = whitesMove ? BLACK : WHITE;\n        uint8 friendlyColor = whitesMove ? WHITE : BLACK;\n\n        setTile(x, y, friendlyColor);\n\n        for(int8 delta_x = -1; delta_x <= 1; delta_x += 1) {\n            for(int8 delta_y = -1; delta_y <= 1; delta_y += 1) {\n                if(delta_x == 0 && delta_y == 0) {\n                    // This direction does nothing. Skip it.\n                    continue;\n                }\n                if(searchForCapturablePiecesInDirection(x, y, delta_x, delta_y, enemyColor, friendlyColor)) {\n                    // We can capture in this direction.\n                    traverseAndFlip(x, y, delta_x, delta_y, enemyColor, friendlyColor);\n                }\n            }\n        }\n\n        // It's now the other player's move\n        whitesMove = !whitesMove;\n    }\n\n    // Functions with this modifier can only be called in debug mode.\n    modifier debugOnly() {\n        require(debugMode, \"Contract is not in debug mode, operation not allowed\");\n        _;\n    }\n\n    // These functions are required by the testing code\n    // Please don't mark them as internal.\n    function disableDebug() public debugOnly {\n        debugMode = false;\n    }\n\n    function call_initializeBoard(uint128 state, address blackAddress, address whiteAddress, bool _isWhiteTurn, bool _isNewGame) public debugOnly {\n        initializeBoard(state, blackAddress, whiteAddress, _isWhiteTurn, _isNewGame);\n    }\n\n    function call_playMove(int8 x, int8 y) public debugOnly {\n        _playMove(x, y);\n    }\n}\n",
  "sourcePath": "/Users/nick/school/othello/contracts/contracts/Board.sol",
  "compiler": {
    "name": "solc",
    "version": "0.5.16+commit.9c3226ce.Emscripten.clang"
  },
  "schemaVersion": "3.1.0",
  "updatedAt": "2020-05-03T22:09:54.379Z",
  "networkType": "ethereum",
  "devdoc": {
    "methods": {}
  },
  "userdoc": {
    "methods": {}
  }
}