{
  "contractName": "othellofactory",
  "abi": [
    {
      "inputs": [],
      "payable": false,
      "stateMutability": "nonpayable",
      "type": "constructor"
    },
    {
      "anonymous": false,
      "inputs": [
        {
          "indexed": false,
          "internalType": "address",
          "name": "winner",
          "type": "address"
        },
        {
          "indexed": false,
          "internalType": "address",
          "name": "loser",
          "type": "address"
        },
        {
          "indexed": false,
          "internalType": "bool",
          "name": "isDraw",
          "type": "bool"
        }
      ],
      "name": "EndGame",
      "type": "event"
    },
    {
      "anonymous": false,
      "inputs": [
        {
          "indexed": false,
          "internalType": "address",
          "name": "nonForfeitedPlayer",
          "type": "address"
        }
      ],
      "name": "Forfeit",
      "type": "event"
    },
    {
      "anonymous": false,
      "inputs": [
        {
          "indexed": false,
          "internalType": "address",
          "name": "black",
          "type": "address"
        },
        {
          "indexed": false,
          "internalType": "address",
          "name": "white",
          "type": "address"
        }
      ],
      "name": "NewGame",
      "type": "event"
    },
    {
      "anonymous": false,
      "inputs": [
        {
          "indexed": false,
          "internalType": "address",
          "name": "player",
          "type": "address"
        }
      ],
      "name": "YourTurn",
      "type": "event"
    },
    {
      "constant": true,
      "inputs": [],
      "name": "_getValidMoves",
      "outputs": [
        {
          "internalType": "bool[64]",
          "name": "validMoves",
          "type": "bool[64]"
        },
        {
          "internalType": "bool",
          "name": "whiteToMove",
          "type": "bool"
        }
      ],
      "payable": false,
      "stateMutability": "view",
      "type": "function"
    },
    {
      "constant": false,
      "inputs": [
        {
          "internalType": "uint128",
          "name": "state",
          "type": "uint128"
        },
        {
          "internalType": "address",
          "name": "blackAddress",
          "type": "address"
        },
        {
          "internalType": "address",
          "name": "whiteAddress",
          "type": "address"
        },
        {
          "internalType": "bool",
          "name": "_isWhiteTurn",
          "type": "bool"
        },
        {
          "internalType": "bool",
          "name": "_isNewGame",
          "type": "bool"
        }
      ],
      "name": "call_initializeBoard",
      "outputs": [],
      "payable": false,
      "stateMutability": "nonpayable",
      "type": "function"
    },
    {
      "constant": false,
      "inputs": [
        {
          "internalType": "int8",
          "name": "x",
          "type": "int8"
        },
        {
          "internalType": "int8",
          "name": "y",
          "type": "int8"
        }
      ],
      "name": "call_playMove",
      "outputs": [],
      "payable": false,
      "stateMutability": "nonpayable",
      "type": "function"
    },
    {
      "constant": false,
      "inputs": [],
      "name": "disableDebug",
      "outputs": [],
      "payable": false,
      "stateMutability": "nonpayable",
      "type": "function"
    },
    {
      "constant": true,
      "inputs": [
        {
          "internalType": "int8",
          "name": "x",
          "type": "int8"
        },
        {
          "internalType": "int8",
          "name": "y",
          "type": "int8"
        }
      ],
      "name": "getTile",
      "outputs": [
        {
          "internalType": "uint8",
          "name": "value",
          "type": "uint8"
        }
      ],
      "payable": false,
      "stateMutability": "view",
      "type": "function"
    },
    {
      "constant": true,
      "inputs": [],
      "name": "getTiles",
      "outputs": [
        {
          "internalType": "uint8[64]",
          "name": "board",
          "type": "uint8[64]"
        }
      ],
      "payable": false,
      "stateMutability": "view",
      "type": "function"
    },
    {
      "constant": true,
      "inputs": [
        {
          "internalType": "int8",
          "name": "x",
          "type": "int8"
        },
        {
          "internalType": "int8",
          "name": "y",
          "type": "int8"
        },
        {
          "internalType": "bool",
          "name": "isWhite",
          "type": "bool"
        }
      ],
      "name": "isValidMove",
      "outputs": [
        {
          "internalType": "bool",
          "name": "",
          "type": "bool"
        }
      ],
      "payable": false,
      "stateMutability": "view",
      "type": "function"
    },
    {
      "constant": false,
      "inputs": [
        {
          "internalType": "string",
          "name": "name",
          "type": "string"
        }
      ],
      "name": "createNewGame",
      "outputs": [
        {
          "internalType": "bool",
          "name": "",
          "type": "bool"
        }
      ],
      "payable": false,
      "stateMutability": "nonpayable",
      "type": "function"
    },
    {
      "constant": false,
      "inputs": [],
      "name": "forfeit",
      "outputs": [
        {
          "internalType": "bool",
          "name": "isForfeitSuccess",
          "type": "bool"
        }
      ],
      "payable": false,
      "stateMutability": "nonpayable",
      "type": "function"
    },
    {
      "constant": false,
      "inputs": [],
      "name": "removeUsersFromGame",
      "outputs": [],
      "payable": false,
      "stateMutability": "nonpayable",
      "type": "function"
    },
    {
      "constant": true,
      "inputs": [],
      "name": "getMyGame",
      "outputs": [
        {
          "components": [
            {
              "internalType": "string",
              "name": "black",
              "type": "string"
            },
            {
              "internalType": "string",
              "name": "white",
              "type": "string"
            },
            {
              "internalType": "address",
              "name": "blackaddress",
              "type": "address"
            },
            {
              "internalType": "address",
              "name": "whiteaddress",
              "type": "address"
            },
            {
              "internalType": "bool",
              "name": "isWhiteTurn",
              "type": "bool"
            },
            {
              "internalType": "uint128",
              "name": "gameState",
              "type": "uint128"
            },
            {
              "internalType": "bool",
              "name": "isMovePassed",
              "type": "bool"
            }
          ],
          "internalType": "struct othellofactory.Game",
          "name": "",
          "type": "tuple"
        }
      ],
      "payable": false,
      "stateMutability": "view",
      "type": "function"
    },
    {
      "constant": false,
      "inputs": [],
      "name": "getValidMoves",
      "outputs": [
        {
          "internalType": "uint8[64]",
          "name": "validMoves",
          "type": "uint8[64]"
        }
      ],
      "payable": false,
      "stateMutability": "nonpayable",
      "type": "function"
    },
    {
      "constant": false,
      "inputs": [
        {
          "internalType": "int8",
          "name": "x",
          "type": "int8"
        },
        {
          "internalType": "int8",
          "name": "y",
          "type": "int8"
        }
      ],
      "name": "playMove",
      "outputs": [],
      "payable": false,
      "stateMutability": "nonpayable",
      "type": "function"
    },
    {
      "constant": true,
      "inputs": [],
      "name": "getTilesArray",
      "outputs": [
        {
          "internalType": "uint8[64]",
          "name": "board",
          "type": "uint8[64]"
        }
      ],
      "payable": false,
      "stateMutability": "view",
      "type": "function"
    },
    {
      "constant": true,
      "inputs": [],
      "name": "getMyColor",
      "outputs": [
        {
          "internalType": "string",
          "name": "",
          "type": "string"
        }
      ],
      "payable": false,
      "stateMutability": "view",
      "type": "function"
    },
    {
      "constant": true,
      "inputs": [],
      "name": "getMyOpponent",
      "outputs": [
        {
          "internalType": "address",
          "name": "opponent",
          "type": "address"
        }
      ],
      "payable": false,
      "stateMutability": "view",
      "type": "function"
    },
    {
      "constant": false,
      "inputs": [],
      "name": "passMove",
      "outputs": [
        {
          "internalType": "bool",
          "name": "isGameEnd",
          "type": "bool"
        },
        {
          "internalType": "address",
          "name": "winner",
          "type": "address"
        },
        {
          "internalType": "bool",
          "name": "isDraw",
          "type": "bool"
        }
      ],
      "payable": false,
      "stateMutability": "nonpayable",
      "type": "function"
    },
    {
      "constant": false,
      "inputs": [],
      "name": "endGame",
      "outputs": [
        {
          "internalType": "address",
          "name": "_winner",
          "type": "address"
        },
        {
          "internalType": "bool",
          "name": "_isDraw",
          "type": "bool"
        }
      ],
      "payable": false,
      "stateMutability": "nonpayable",
      "type": "function"
    },
    {
      "constant": true,
      "inputs": [],
      "name": "getCurrentTurnAddress",
      "outputs": [
        {
          "internalType": "address",
          "name": "currentPlayer",
          "type": "address"
        }
      ],
      "payable": false,
      "stateMutability": "view",
      "type": "function"
    },
    {
      "constant": false,
      "inputs": [],
      "name": "getCurrentState",
      "outputs": [
        {
          "internalType": "string",
          "name": "state",
          "type": "string"
        }
      ],
      "payable": false,
      "stateMutability": "nonpayable",
      "type": "function"
    }
  ],
  "bytecode": "0x608060405234801561001057600080fd5b50600080600260116101000a81548160ff021916908315150217905550506134e98061003d6000396000f3fe608060405234801561001057600080fd5b506004361061012c5760003560e01c806390117d2a116100ad578063cccad90d11610071578063cccad90d146102ff578063e32f090d1461031b578063e45b614c14610339578063e692268214610359578063f3d86e4a146103775761012c565b806390117d2a1461027f578063a5ce3597146102af578063ac0754bf146102b9578063b5fdfa66146102d7578063b8b34132146102f55761012c565b80634c975ac6116100f45780634c975ac6146101c65780636b94e0f2146101e25780636cbc2ded146102125780638032de4b146102315780638de194821461024f5761012c565b806302056c8b146101315780631d3a01c61461014f5780632ce273ea1461016d5780633530026114610189578063378aa701146101a8575b600080fd5b610139610395565b6040516101469190613225565b60405180910390f35b61015761070a565b6040516101649190613135565b60405180910390f35b61018760048036036101829190810190612bd2565b6107ad565b005b610191610900565b60405161019f92919061310a565b60405180910390f35b6101b06109b2565b6040516101bd91906131a3565b60405180910390f35b6101e060048036036101db9190810190612bd2565b610b41565b005b6101fc60048036036101f79190810190612c5d565b610b9e565b6040516102099190613151565b60405180910390f35b61021a61114f565b6040516102289291906130e1565b60405180910390f35b6102396112b1565b6040516102469190613066565b60405180910390f35b61026960048036036102649190810190612bd2565b611317565b6040516102769190613247565b60405180910390f35b61029960048036036102949190810190612c0e565b611378565b6040516102a69190613151565b60405180910390f35b6102b761141d565b005b6102c1611562565b6040516102ce91906131a3565b60405180910390f35b6102df61161c565b6040516102ec9190613066565b60405180910390f35b6102fd611656565b005b61031960048036036103149190810190612c9e565b6116c2565b005b610323611725565b6040516103309190613135565b60405180910390f35b61034161181f565b6040516103509392919061316c565b60405180910390f35b610361611a78565b60405161036e9190613135565b60405180910390f35b61037f611b0e565b60405161038c9190613151565b60405180910390f35b61039d61291f565b60011515600660003373ffffffffffffffffffffffffffffffffffffffff1673ffffffffffffffffffffffffffffffffffffffff16815260200190815260200160002060009054906101000a900460ff16151514610430576040517f08c379a0000000000000000000000000000000000000000000000000000000008152600401610427906131e5565b60405180910390fd5b6003600760003373ffffffffffffffffffffffffffffffffffffffff1673ffffffffffffffffffffffffffffffffffffffff168152602001908152602001600020548154811061047c57fe5b90600052602060002090600502016040518060e0016040529081600082018054600181600116156101000203166002900480601f01602080910402602001604051908101604052809291908181526020018280546001816001161561010002031660029004801561052e5780601f106105035761010080835404028352916020019161052e565b820191906000526020600020905b81548152906001019060200180831161051157829003601f168201915b50505050508152602001600182018054600181600116156101000203166002900480601f0160208091040260200160405190810160405280929190818152602001828054600181600116156101000203166002900480156105d05780601f106105a5576101008083540402835291602001916105d0565b820191906000526020600020905b8154815290600101906020018083116105b357829003601f168201915b505050505081526020016002820160009054906101000a900473ffffffffffffffffffffffffffffffffffffffff1673ffffffffffffffffffffffffffffffffffffffff1673ffffffffffffffffffffffffffffffffffffffff1681526020016003820160009054906101000a900473ffffffffffffffffffffffffffffffffffffffff1673ffffffffffffffffffffffffffffffffffffffff1673ffffffffffffffffffffffffffffffffffffffff1681526020016003820160149054906101000a900460ff161515151581526020016004820160009054906101000a90046fffffffffffffffffffffffffffffffff166fffffffffffffffffffffffffffffffff166fffffffffffffffffffffffffffffffff1681526020016004820160109054906101000a900460ff161515151581525050905090565b61071261299e565b600080905060008090505b608060ff168160ff1610156107a85761077581600260ff16600260009054906101000a90046fffffffffffffffffffffffffffffffff166fffffffffffffffffffffffffffffffff16611bc69092919063ffffffff16565b838360ff166040811061078457fe5b602002019060ff16908160ff1681525050818060010192505060028101905061071d565b505090565b6107b561161c565b73ffffffffffffffffffffffffffffffffffffffff163373ffffffffffffffffffffffffffffffffffffffff1614610822576040517f08c379a000000000000000000000000000000000000000000000000000000000815260040161081990613205565b60405180910390fd5b61082a61291f565b610832611c5e565b905060006003600760003373ffffffffffffffffffffffffffffffffffffffff1673ffffffffffffffffffffffffffffffffffffffff168152602001908152602001600020548154811061088257fe5b906000526020600020906005020160040160106101000a81548160ff0219169083151502179055506108b48383611f6a565b6108bd816120c6565b7fe67200bf49f9aa0161b503be6cf5c40d700488d9452b7e96a9c01aadcab79faf6108e66112b1565b6040516108f39190613066565b60405180910390a1505050565b6109086129c1565b6000806000905060008090505b600860000b8160000b12156109945760008090505b600860000b8160000b1215610986576109538183600260109054906101000a900460ff16611378565b858460ff166040811061096257fe5b6020020190151590811515815250508280600101935050808060010191505061092a565b508080600101915050610915565b50600260109054906101000a900460ff169150828292509250509091565b606060011515600660003373ffffffffffffffffffffffffffffffffffffffff1673ffffffffffffffffffffffffffffffffffffffff16815260200190815260200160002060009054906101000a900460ff1615151415610a4a576040518060400160405280600781526020017f494e5f47414d45000000000000000000000000000000000000000000000000008152509050610b3e565b600060048054905014158015610ac357503373ffffffffffffffffffffffffffffffffffffffff166004600081548110610a8057fe5b9060005260206000200160009054906101000a900473ffffffffffffffffffffffffffffffffffffffff1673ffffffffffffffffffffffffffffffffffffffff16145b15610b05576040518060400160405280600b81526020017f4d415443484d414b494e470000000000000000000000000000000000000000008152509050610b3e565b6040518060400160405280600481526020017f49444c450000000000000000000000000000000000000000000000000000000081525090505b90565b600260119054906101000a900460ff16610b90576040517f08c379a0000000000000000000000000000000000000000000000000000000008152600401610b87906131c5565b60405180910390fd5b610b9a8282611f6a565b5050565b600060011515600660003373ffffffffffffffffffffffffffffffffffffffff1673ffffffffffffffffffffffffffffffffffffffff16815260200190815260200160002060009054906101000a900460ff1615151415610bfe57600080fd5b60006004805490501415610c925760043390806001815401808255809150509060018203906000526020600020016000909192909190916101000a81548173ffffffffffffffffffffffffffffffffffffffff021916908373ffffffffffffffffffffffffffffffffffffffff160217905550508160059080519060200190610c889291906129e4565b506000905061114a565b610c9a61291f565b6000808260a001906fffffffffffffffffffffffffffffffff1690816fffffffffffffffffffffffffffffffff168152505060006004600081548110610cdc57fe5b9060005260206000200160009054906101000a900473ffffffffffffffffffffffffffffffffffffffff16905060046000610d179190612a64565b6040518060e0016040528086815260200160058054600181600116156101000203166002900480601f016020809104026020016040519081016040528092919081815260200182805460018160011615610100020316600290048015610dbe5780601f10610d9357610100808354040283529160200191610dbe565b820191906000526020600020905b815481529060010190602001808311610da157829003601f168201915b505050505081526020013373ffffffffffffffffffffffffffffffffffffffff1681526020018273ffffffffffffffffffffffffffffffffffffffff1681526020016000151581526020018460a001516fffffffffffffffffffffffffffffffff1681526020016000151581525092506001600384908060018154018082558091505090600182039060005260206000209060050201600090919290919091506000820151816000019080519060200190610e7a929190612a85565b506020820151816001019080519060200190610e97929190612a85565b5060408201518160020160006101000a81548173ffffffffffffffffffffffffffffffffffffffff021916908373ffffffffffffffffffffffffffffffffffffffff16021790555060608201518160030160006101000a81548173ffffffffffffffffffffffffffffffffffffffff021916908373ffffffffffffffffffffffffffffffffffffffff16021790555060808201518160030160146101000a81548160ff02191690831515021790555060a08201518160040160006101000a8154816fffffffffffffffffffffffffffffffff02191690836fffffffffffffffffffffffffffffffff16021790555060c08201518160040160106101000a81548160ff0219169083151502179055505050039150610fc88360a0015184604001518560600151866080015160016122db565b6001600660008373ffffffffffffffffffffffffffffffffffffffff1673ffffffffffffffffffffffffffffffffffffffff16815260200190815260200160002060006101000a81548160ff0219169083151502179055506001600660003373ffffffffffffffffffffffffffffffffffffffff1673ffffffffffffffffffffffffffffffffffffffff16815260200190815260200160002060006101000a81548160ff02191690831515021790555081600760008373ffffffffffffffffffffffffffffffffffffffff1673ffffffffffffffffffffffffffffffffffffffff1681526020019081526020016000208190555081600760003373ffffffffffffffffffffffffffffffffffffffff1673ffffffffffffffffffffffffffffffffffffffff16815260200190815260200160002081905550611109836120c6565b7fd1af9b1127c37da1f8a3d2e4e7d92bcbfa7bfa2ccf9ce1d29530052e366cc901338260405161113a929190613081565b60405180910390a1600193505050505b919050565b60008061115a61299e565b611162611a78565b90506000806000611171610395565b6040015190506000611181610395565b60600151905060008090505b60408160ff1610156111fb57600160ff16868260ff16604081106111ad57fe5b602002015160ff1614156111c6576001850194506111f0565b600360ff16868260ff16604081106111da57fe5b602002015160ff1614156111ef576001840193505b5b60018101905061118d565b5061120461141d565b8360ff168360ff161495508260ff168460ff1610156112235780611225565b815b965060008273ffffffffffffffffffffffffffffffffffffffff168873ffffffffffffffffffffffffffffffffffffffff16146112625782611264565b815b90507fe19c1a83095b09cbc24b035f89bf8a22b9bb0dfbd13ae43e6b4427b72edce9e1888289604051611299939291906130aa565b60405180910390a18787975097505050505050509091565b60006112bb610395565b6040015173ffffffffffffffffffffffffffffffffffffffff163373ffffffffffffffffffffffffffffffffffffffff161415611305576112fa610395565b606001519050611314565b61130d610395565b6040015190505b90565b600080611324848461240d565b905061136f81600260ff16600260009054906101000a90046fffffffffffffffffffffffffffffffff166fffffffffffffffffffffffffffffffff16611bc69092919063ffffffff16565b91505092915050565b6000808261138757600361138a565b60015b905060008361139a57600161139d565b60035b90506113a98686612469565b6113b857600092505050611416565b600060ff166113c78787611317565b60ff16146113da57600092505050611416565b6113e58686846124c4565b6113f457600092505050611416565b611400868684846125a9565b61140f57600092505050611416565b6001925050505b9392505050565b60006114276112b1565b90506000600660008373ffffffffffffffffffffffffffffffffffffffff1673ffffffffffffffffffffffffffffffffffffffff16815260200190815260200160002060006101000a81548160ff0219169083151502179055506000600660003373ffffffffffffffffffffffffffffffffffffffff1673ffffffffffffffffffffffffffffffffffffffff16815260200190815260200160002060006101000a81548160ff021916908315150217905550600760003373ffffffffffffffffffffffffffffffffffffffff1673ffffffffffffffffffffffffffffffffffffffff16815260200190815260200160002060009055600760008273ffffffffffffffffffffffffffffffffffffffff1673ffffffffffffffffffffffffffffffffffffffff1681526020019081526020016000206000905550565b606061156c610395565b6040015173ffffffffffffffffffffffffffffffffffffffff163373ffffffffffffffffffffffffffffffffffffffff1614156115e0576040518060400160405280600581526020017f424c41434b0000000000000000000000000000000000000000000000000000008152509050611619565b6040518060400160405280600581526020017f574849544500000000000000000000000000000000000000000000000000000081525090505b90565b600080611627610395565b6080015161164057611637610395565b6040015161164d565b611648610395565b606001515b90508091505090565b600260119054906101000a900460ff166116a5576040517f08c379a000000000000000000000000000000000000000000000000000000000815260040161169c906131c5565b60405180910390fd5b6000600260116101000a81548160ff021916908315150217905550565b600260119054906101000a900460ff16611711576040517f08c379a0000000000000000000000000000000000000000000000000000000008152600401611708906131c5565b60405180910390fd5b61171e85858585856122db565b5050505050565b61172d61299e565b61173561161c565b73ffffffffffffffffffffffffffffffffffffffff163373ffffffffffffffffffffffffffffffffffffffff16146117a2576040517f08c379a000000000000000000000000000000000000000000000000000000000815260040161179990613205565b60405180910390fd5b6117aa611c5e565b506117b36129c1565b60006117bd610900565b9150915060008090505b6040811015611819578281604081106117dc57fe5b60200201516117ec5760006117ef565b60015b8482604081106117fb57fe5b602002019060ff16908160ff168152505080806001019150506117c7565b50505090565b600080600061182c61161c565b73ffffffffffffffffffffffffffffffffffffffff163373ffffffffffffffffffffffffffffffffffffffff1614611899576040517f08c379a000000000000000000000000000000000000000000000000000000000815260040161189090613205565b60405180910390fd5b600115156118a5610395565b60c00151151514156118d0576118b961114f565b809250819350505060018282925092509250611a73565b60016003600760003373ffffffffffffffffffffffffffffffffffffffff1673ffffffffffffffffffffffffffffffffffffffff168152602001908152602001600020548154811061191e57fe5b906000526020600020906005020160040160106101000a81548160ff0219169083151502179055506003600760003373ffffffffffffffffffffffffffffffffffffffff1673ffffffffffffffffffffffffffffffffffffffff168152602001908152602001600020548154811061199257fe5b906000526020600020906005020160030160149054906101000a900460ff16156003600760003373ffffffffffffffffffffffffffffffffffffffff1673ffffffffffffffffffffffffffffffffffffffff16815260200190815260200160002054815481106119fe57fe5b906000526020600020906005020160030160146101000a81548160ff0219169083151502179055507fe67200bf49f9aa0161b503be6cf5c40d700488d9452b7e96a9c01aadcab79faf611a4f6112b1565b604051611a5c9190613066565b60405180910390a160003360008191509250925092505b909192565b611a8061299e565b6000611a8a610395565b60a001519050600080905060008090505b608060ff168160ff161015611b0857611ad581600260ff16856fffffffffffffffffffffffffffffffff16611bc69092919063ffffffff16565b848360ff1660408110611ae457fe5b602002019060ff16908160ff16815250508180600101925050600281019050611a9b565b50505090565b600080611b196112b1565b905060001515600660003373ffffffffffffffffffffffffffffffffffffffff1673ffffffffffffffffffffffffffffffffffffffff16815260200190815260200160002060009054906101000a900460ff1615151415611b7e576000915050611bc3565b611b8661141d565b7f652c8b1e46a6260cc853fd048408e055cc4e68d195daac13775c3322fca159c581604051611bb59190613066565b60405180910390a160019150505b90565b60008161ffff166000108015611bdf575060808360ff16105b8015611bf557506080828460ff160161ffff1611155b611bfe57600080fd5b8160800361ffff167fffffffffffffffffffffffffffffffffffffffffffffffffffffffffffffffff6fffffffffffffffffffffffffffffffff16901c8360ff16856fffffffffffffffffffffffffffffffff16901c1690509392505050565b611c6661291f565b611c6e61291f565b6003600760003373ffffffffffffffffffffffffffffffffffffffff1673ffffffffffffffffffffffffffffffffffffffff1681526020019081526020016000205481548110611cba57fe5b90600052602060002090600502016040518060e0016040529081600082018054600181600116156101000203166002900480601f016020809104026020016040519081016040528092919081815260200182805460018160011615610100020316600290048015611d6c5780601f10611d4157610100808354040283529160200191611d6c565b820191906000526020600020905b815481529060010190602001808311611d4f57829003601f168201915b50505050508152602001600182018054600181600116156101000203166002900480601f016020809104026020016040519081016040528092919081815260200182805460018160011615610100020316600290048015611e0e5780601f10611de357610100808354040283529160200191611e0e565b820191906000526020600020905b815481529060010190602001808311611df157829003601f168201915b505050505081526020016002820160009054906101000a900473ffffffffffffffffffffffffffffffffffffffff1673ffffffffffffffffffffffffffffffffffffffff1673ffffffffffffffffffffffffffffffffffffffff1681526020016003820160009054906101000a900473ffffffffffffffffffffffffffffffffffffffff1673ffffffffffffffffffffffffffffffffffffffff1673ffffffffffffffffffffffffffffffffffffffff1681526020016003820160149054906101000a900460ff161515151581526020016004820160009054906101000a90046fffffffffffffffffffffffffffffffff166fffffffffffffffffffffffffffffffff166fffffffffffffffffffffffffffffffff1681526020016004820160109054906101000a900460ff1615151515815250509050611f638160a0015182604001518360600151846080015160006122db565b8091505090565b611f848282600260109054906101000a900460ff16611378565b611f8a57fe5b6000600260109054906101000a900460ff16611fa7576003611faa565b60015b90506000600260109054906101000a900460ff16611fc9576001611fcc565b60035b9050611fd9848483612670565b60007fffffffffffffffffffffffffffffffffffffffffffffffffffffffffffffffff90505b60018160000b136120955760007fffffffffffffffffffffffffffffffffffffffffffffffffffffffffffffffff90505b60018160000b136120895760008260000b148015612051575060008160000b145b1561205b5761207e565b61206986868484888861273c565b1561207d5761207c868684848888612814565b5b5b600181019050612030565b50600181019050611fff565b50600260109054906101000a900460ff1615600260106101000a81548160ff02191690831515021790555050505050565b600260009054906101000a90046fffffffffffffffffffffffffffffffff168160a001906fffffffffffffffffffffffffffffffff1690816fffffffffffffffffffffffffffffffff1681525050600260109054906101000a900460ff16816080019015159081151581525050806003600760003373ffffffffffffffffffffffffffffffffffffffff1673ffffffffffffffffffffffffffffffffffffffff168152602001908152602001600020548154811061218057fe5b906000526020600020906005020160008201518160000190805190602001906121aa929190612a85565b5060208201518160010190805190602001906121c7929190612a85565b5060408201518160020160006101000a81548173ffffffffffffffffffffffffffffffffffffffff021916908373ffffffffffffffffffffffffffffffffffffffff16021790555060608201518160030160006101000a81548173ffffffffffffffffffffffffffffffffffffffff021916908373ffffffffffffffffffffffffffffffffffffffff16021790555060808201518160030160146101000a81548160ff02191690831515021790555060a08201518160040160006101000a8154816fffffffffffffffffffffffffffffffff02191690836fffffffffffffffffffffffffffffffff16021790555060c08201518160040160106101000a81548160ff02191690831515021790555090505050565b83600080600281106122e957fe5b0160006101000a81548173ffffffffffffffffffffffffffffffffffffffff021916908373ffffffffffffffffffffffffffffffffffffffff16021790555082600060016002811061233757fe5b0160006101000a81548173ffffffffffffffffffffffffffffffffffffffff021916908373ffffffffffffffffffffffffffffffffffffffff16021790555084600260006101000a8154816fffffffffffffffffffffffffffffffff02191690836fffffffffffffffffffffffffffffffff16021790555081600260106101000a81548160ff0219169083151502179055508015612406576123dc6003806003612670565b6123ea600460036001612670565b6123f8600360046001612670565b6124056004806003612670565b5b5050505050565b60008260000b6000131580156124295750600860000b8360000b125b61242f57fe5b8160000b6000131580156124495750600860000b8260000b125b61244f57fe5b600082600802840190508060020291508191505092915050565b60008260000b600013806124845750600860000b8360000b12155b1561249257600090506124be565b8160000b600013806124ab5750600860000b8260000b12155b156124b957600090506124be565b600190505b92915050565b6000807fffffffffffffffffffffffffffffffffffffffffffffffffffffffffffffffff90505b60018160000b1361259c5760007fffffffffffffffffffffffffffffffffffffffffffffffffffffffffffffffff90505b60018160000b136125905760008260000b14801561253d575060008160000b145b1561254757612585565b612555828701828701612469565b61255e57612585565b8360ff16612570838801838801611317565b60ff161415612584576001925050506125a2565b5b60018101905061251c565b506001810190506124eb565b50600090505b9392505050565b6000807fffffffffffffffffffffffffffffffffffffffffffffffffffffffffffffffff90505b60018160000b136126625760007fffffffffffffffffffffffffffffffffffffffffffffffffffffffffffffffff90505b60018160000b136126565760008260000b148015612622575060008160000b145b1561262c5761264b565b61263a87878484898961273c565b1561264a57600192505050612668565b5b600181019050612601565b506001810190506125d0565b50600090505b949350505050565b600060ff168160ff16148061268b5750600160ff168160ff16145b8061269c5750600360ff168160ff16145b6126a257fe5b60006126ae848461240d565b90506126fe81600260ff168460ff16600260009054906101000a90046fffffffffffffffffffffffffffffffff166fffffffffffffffffffffffffffffffff1661286a909392919063ffffffff16565b600260006101000a8154816fffffffffffffffffffffffffffffffff02191690836fffffffffffffffffffffffffffffffff16021790555050505050565b6000808560000b148015612753575060008460000b145b1561275a57fe5b6000809050858801975084870196505b6127748888612469565b156128045780156127ca57600061278b8989611317565b90508460ff168160ff1614156127a0576127c4565b8360ff168160ff1614156127b95760019250505061280a565b60009250505061280a565b506127f5565b8360ff166127d88989611317565b60ff1614156127ea57600190506127f4565b600091505061280a565b5b8588019750848701965061276a565b60009150505b9695505050505050565b838601955082850194505b6128298686612469565b801561284357508160ff1661283e8787611317565b60ff16145b1561286257612853868683612670565b8386019550828501945061281f565b505050505050565b60008261ffff166000108015612883575060808460ff16105b801561289957506080838560ff160161ffff1611155b6128a257600080fd5b600060018461ffff1660016fffffffffffffffffffffffffffffffff16901b03905060008560ff168285166fffffffffffffffffffffffffffffffff16901b905060008660ff16836fffffffffffffffffffffffffffffffff16901b90506000811990506000898216905083811795505050505050949350505050565b6040518060e001604052806060815260200160608152602001600073ffffffffffffffffffffffffffffffffffffffff168152602001600073ffffffffffffffffffffffffffffffffffffffff16815260200160001515815260200160006fffffffffffffffffffffffffffffffff1681526020016000151581525090565b604051806108000160405280604090602082028038833980820191505090505090565b604051806108000160405280604090602082028038833980820191505090505090565b828054600181600116156101000203166002900490600052602060002090601f016020900481019282601f10612a2557805160ff1916838001178555612a53565b82800160010185558215612a53579182015b82811115612a52578251825591602001919060010190612a37565b5b509050612a609190612b05565b5090565b5080546000825590600052602060002090810190612a829190612b05565b50565b828054600181600116156101000203166002900490600052602060002090601f016020900481019282601f10612ac657805160ff1916838001178555612af4565b82800160010185558215612af4579182015b82811115612af3578251825591602001919060010190612ad8565b5b509050612b019190612b05565b5090565b612b2791905b80821115612b23576000816000905550600101612b0b565b5090565b90565b600081359050612b398161344a565b92915050565b600081359050612b4e81613461565b92915050565b600081359050612b6381613478565b92915050565b600082601f830112612b7a57600080fd5b8135612b8d612b888261328f565b613262565b91508082526020830160208301858383011115612ba957600080fd5b612bb48382846133f7565b50505092915050565b600081359050612bcc8161348f565b92915050565b60008060408385031215612be557600080fd5b6000612bf385828601612b54565b9250506020612c0485828601612b54565b9150509250929050565b600080600060608486031215612c2357600080fd5b6000612c3186828701612b54565b9350506020612c4286828701612b54565b9250506040612c5386828701612b3f565b9150509250925092565b600060208284031215612c6f57600080fd5b600082013567ffffffffffffffff811115612c8957600080fd5b612c9584828501612b69565b91505092915050565b600080600080600060a08688031215612cb657600080fd5b6000612cc488828901612bbd565b9550506020612cd588828901612b2a565b9450506040612ce688828901612b2a565b9350506060612cf788828901612b3f565b9250506080612d0888828901612b3f565b9150509295509295909350565b6000612d218383612e20565b60208301905092915050565b6000612d398383613048565b60208301905092915050565b612d4e816133c1565b82525050565b612d5d8161334d565b82525050565b612d6c8161334d565b82525050565b612d7b816132cf565b612d858184613315565b9250612d90826132bb565b8060005b83811015612dc1578151612da88782612d15565b9650612db3836132fb565b925050600181019050612d94565b505050505050565b612dd2816132da565b612ddc8184613320565b9250612de7826132c5565b8060005b83811015612e18578151612dff8782612d2d565b9650612e0a83613308565b925050600181019050612deb565b505050505050565b612e298161335f565b82525050565b612e388161335f565b82525050565b6000612e49826132f0565b612e53818561333c565b9350612e63818560208601613406565b612e6c81613439565b840191505092915050565b6000612e82826132e5565b612e8c818561332b565b9350612e9c818560208601613406565b612ea581613439565b840191505092915050565b6000612ebd60348361333c565b91507f436f6e7472616374206973206e6f7420696e206465627567206d6f64652c206f60008301527f7065726174696f6e206e6f7420616c6c6f7765640000000000000000000000006020830152604082019050919050565b6000612f2360178361333c565b91507f596f7520617265206e6f7420696e20616e792067616d650000000000000000006000830152602082019050919050565b6000612f6360148361333c565b91507f4974206973206e6f7420796f7572207475726e210000000000000000000000006000830152602082019050919050565b600060e0830160008301518482036000860152612fb38282612e77565b91505060208301518482036020860152612fcd8282612e77565b9150506040830151612fe26040860182612d54565b506060830151612ff56060860182612d54565b5060808301516130086080860182612e20565b5060a083015161301b60a0860182613039565b5060c083015161302e60c0860182612e20565b508091505092915050565b61304281613378565b82525050565b613051816133b4565b82525050565b613060816133b4565b82525050565b600060208201905061307b6000830184612d63565b92915050565b60006040820190506130966000830185612d45565b6130a36020830184612d63565b9392505050565b60006060820190506130bf6000830186612d63565b6130cc6020830185612d63565b6130d96040830184612e2f565b949350505050565b60006040820190506130f66000830185612d63565b6131036020830184612e2f565b9392505050565b6000610820820190506131206000830185612d72565b61312e610800830184612e2f565b9392505050565b60006108008201905061314b6000830184612dc9565b92915050565b60006020820190506131666000830184612e2f565b92915050565b60006060820190506131816000830186612e2f565b61318e6020830185612d63565b61319b6040830184612e2f565b949350505050565b600060208201905081810360008301526131bd8184612e3e565b905092915050565b600060208201905081810360008301526131de81612eb0565b9050919050565b600060208201905081810360008301526131fe81612f16565b9050919050565b6000602082019050818103600083015261321e81612f56565b9050919050565b6000602082019050818103600083015261323f8184612f96565b905092915050565b600060208201905061325c6000830184613057565b92915050565b6000604051905081810181811067ffffffffffffffff8211171561328557600080fd5b8060405250919050565b600067ffffffffffffffff8211156132a657600080fd5b601f19601f8301169050602081019050919050565b6000819050919050565b6000819050919050565b600060409050919050565b600060409050919050565b600081519050919050565b600081519050919050565b6000602082019050919050565b6000602082019050919050565b600081905092915050565b600081905092915050565b600082825260208201905092915050565b600082825260208201905092915050565b600061335882613394565b9050919050565b60008115159050919050565b60008160000b9050919050565b60006fffffffffffffffffffffffffffffffff82169050919050565b600073ffffffffffffffffffffffffffffffffffffffff82169050919050565b600060ff82169050919050565b60006133cc826133d3565b9050919050565b60006133de826133e5565b9050919050565b60006133f082613394565b9050919050565b82818337600083830152505050565b60005b83811015613424578082015181840152602081019050613409565b83811115613433576000848401525b50505050565b6000601f19601f8301169050919050565b6134538161334d565b811461345e57600080fd5b50565b61346a8161335f565b811461347557600080fd5b50565b6134818161336b565b811461348c57600080fd5b50565b61349881613378565b81146134a357600080fd5b5056fea365627a7a72315820e1c3950218c939ec5a69b9db2fac9ab87224ee0509925ebd497b0c0ac3c214066c6578706572696d656e74616cf564736f6c63430005100040",
  "source": "pragma solidity >=0.5.0 <0.6.0;\npragma experimental ABIEncoderV2;\n\nimport \"./Board.sol\";\ncontract othellofactory is Board{\n    \n    event NewGame(address black, address white);\n    event YourTurn(address player);\n    event Forfeit(address nonForfeitedPlayer);\n    event EndGame(address winner, address loser, bool isDraw);\n\n    struct Game{\n        string black;\n        string white;\n        address blackaddress;\n        address whiteaddress;\n        bool isWhiteTurn;\n        uint128 gameState;\n        bool isMovePassed;\n    }\n    \n    \n    Game[] private existingGames;\n    address[] waitlistPlayerids;\n    string waitlistPlayerName;\n    \n    mapping (address => bool) activelyPlaying;\n    mapping (address => uint) playerToGames; // stores the gameid for every player which is index of the gamme in existing games\n\n    uint8[64] boardState;\n    \n    // Disable debug mode in parent contract\n    constructor() public Board(false) {}\n    \n   // Implements matchmaking api to create a game\n   // Returns true if game is created, false if the player is added to waitlist\n   function createNewGame(string memory name) public returns (bool){\n       require(activelyPlaying[msg.sender]!=true); // make sure one player can play only one game at a time\n       \n       // If there is already another player waiting to play game, New game will be created otherwise player will be added to waitlist\n       if (waitlistPlayerids.length==0){   \n           waitlistPlayerids.push(msg.sender);\n           waitlistPlayerName=name;\n           return false;\n       }\n      Game memory currentGame; \n      uint currentGameId;\n      currentGame.gameState=0;\n      address waitlistPlayerid=waitlistPlayerids[0];\n      delete waitlistPlayerids;\n      currentGame=Game(name, waitlistPlayerName,msg.sender,waitlistPlayerid,false,currentGame.gameState,false);\n      currentGameId=existingGames.push(currentGame)-1;\n      initializeBoard(currentGame.gameState,currentGame.blackaddress,currentGame.whiteaddress,currentGame.isWhiteTurn,true);\n      \n      activelyPlaying[waitlistPlayerid]=true;\n      activelyPlaying[msg.sender]=true;\n\n      playerToGames[waitlistPlayerid]=currentGameId;\n      playerToGames[msg.sender]=currentGameId;\n      saveGameState(currentGame);\n      emit NewGame(msg.sender,waitlistPlayerid);\n\n      return true;\n    }\n    \n    // Returns true if the player can forfeit else false\n    function forfeit() public returns(bool isForfeitSuccess){\n         address opponent= getMyOpponent();\n        // player can only forfeit if he is in any game\n        if(activelyPlaying[msg.sender]==false){\n            return false;\n        }\n        else{\n           removeUsersFromGame();\n           emit Forfeit(opponent);  // emits forfeit event to let the other player know and display him as winner\n           return true; // if true the player who forfeited will be displayed as looser\n        }\n        \n    }\n    \n   // Removes the players from their games, enabling them to join new game\n   function removeUsersFromGame() public{\n       address opponent= getMyOpponent();\n       activelyPlaying[opponent]=false;\n       activelyPlaying[msg.sender]=false;\n       delete playerToGames[msg.sender];\n       delete playerToGames[opponent]; \n   }\n   \n   // Returns the updated Game struct of the player if he has any game\n    function getMyGame() public view returns(Game memory){\n        require(activelyPlaying[msg.sender]==true,\"You are not in any game\");\n        return existingGames[playerToGames[msg.sender]];\n    }\n    \n    // Initialize the board with the game state of this player's game\n    function setGameState() private returns(Game memory){\n        Game memory currentGame=existingGames[playerToGames[msg.sender]];\n        initializeBoard(currentGame.gameState,currentGame.blackaddress,currentGame.whiteaddress,currentGame.isWhiteTurn,false);\n        return currentGame;\n    }\n    \n    // return the validMoves as a boolean 64 bit array with 1 for potential squares\n    function getValidMoves() public returns (uint8[64] memory validMoves){\n        require(msg.sender==getCurrentTurnAddress(),\"It is not your turn!\");\n        setGameState();\n        (bool[64] memory _validMoves, bool _unused) = _getValidMoves();\n        for(uint i = 0; i < 64; i++) {\n            validMoves[i] = _validMoves[i] ? 1 : 0;\n        }\n    }\n    \n    // Takes the row index and column index of the 8*8 game board\n    function playMove(int8 x, int8 y) public {\n        require(msg.sender==getCurrentTurnAddress(), \"It is not your turn!\");\n        Game memory currentGame = setGameState();\n        existingGames[playerToGames[msg.sender]].isMovePassed=false;\n        _playMove(x,y);\n        saveGameState(currentGame);\n        emit YourTurn(getMyOpponent());\n    }\n    \n    // We should update the existing games with the new gameState after every move\n    function saveGameState(Game memory currentGame) private{\n        currentGame.gameState=Board.gameState;\n        currentGame.isWhiteTurn=Board.whitesMove;\n        existingGames[playerToGames[msg.sender]]=currentGame;\n    }\n    \n    // Returns gameBoard as a 64 integer array \n    function getTilesArray() public view returns (uint8[64] memory board) {\n        uint128 gameState=getMyGame().gameState;\n        // Return array of board values, 1 per space\n        uint8 flatCoord = 0;\n        for(uint8 bitCoord = 0; bitCoord < BITFIELD_SIZE; bitCoord += BITS_PER_CELL) {\n            board[flatCoord] = uint8(gameState.bits(bitCoord, BITS_PER_CELL));\n            flatCoord++;\n        }\n    }\n    \n    function getMyColor() public view returns(string memory){\n        if (msg.sender==getMyGame().blackaddress){\n            return \"BLACK\";\n        }\n        return \"WHITE\";\n    }\n    \n    // returns the address of opponent, helper for forfeit function\n    function getMyOpponent() public view returns(address opponent){\n        if (msg.sender==getMyGame().blackaddress){\n            return getMyGame().whiteaddress;\n        }\n        return getMyGame().blackaddress;\n    }\n    \n    \n    // returns if the game is end, for the ui to know if they have to call endGame function\n    // winner and isDraw are only valid if isGameEnd is true\n    function passMove() public returns(bool isGameEnd, address winner, bool isDraw){\n        require(msg.sender==getCurrentTurnAddress(),\"It is not your turn!\");\n        if(getMyGame().isMovePassed==true){\n            (winner,isDraw)=endGame();\n            return(true, winner, isDraw);\n        }\n        existingGames[playerToGames[msg.sender]].isMovePassed=true;\n        existingGames[playerToGames[msg.sender]].isWhiteTurn=!existingGames[playerToGames[msg.sender]].isWhiteTurn; // Should also change the turn and emit YourTurn event\n        emit YourTurn(getMyOpponent());\n        return (false,msg.sender,false);\n    }\n    \n    // If isDraw is true no player is winner but this function returns black as winner please ignore the winner when isDraw is true\n    // If isDraw is false then returns the winner\n    // Also emits an event called endGame to notify both the users the game is end\n    function endGame() public returns(address _winner, bool _isDraw){\n        uint8[64] memory tiles = getTilesArray();\n        uint8 black;\n        uint8 white;\n        address blackaddress=getMyGame().blackaddress;\n        address whiteaddress=getMyGame().whiteaddress;\n        for(uint8 tile = 0; tile < 64; tile += 1) {\n            if(tiles[tile]==BLACK){\n                black+=1;\n            } \n            else if(tiles[tile]==WHITE){\n                white+=1;\n            }\n        }\n        removeUsersFromGame();\n        \n        _isDraw=white==black;\n        _winner=black>=white?blackaddress:whiteaddress;\n        address _looser=_winner==blackaddress?whiteaddress:blackaddress;\n        emit EndGame(_winner,_looser, _isDraw);\n        return(_winner, _isDraw);\n            \n    }\n    \n    // Returns the address of the player whose turn it is\n    function getCurrentTurnAddress() public view returns(address currentPlayer){\n        address currentTurnAddress=getMyGame().isWhiteTurn? getMyGame().whiteaddress: getMyGame().blackaddress;\n        return currentTurnAddress;\n    }\n    \n    // Return the currentState of player's game\n    function getCurrentState() public returns (string memory state){\n        if (activelyPlaying[msg.sender]==true){\n            return \"IN_GAME\";\n        }\n        else if((waitlistPlayerids.length!=0) && (waitlistPlayerids[0]==msg.sender)){\n            return \"MATCHMAKING\";\n        }\n        return \"IDLE\";\n    }\n}\n",
  "sourcePath": "/Users/nick/school/othello/contracts/contracts/othellofactory.sol",
  "compiler": {
    "name": "solc",
    "version": "0.5.16+commit.9c3226ce.Emscripten.clang"
  },
  "schemaVersion": "3.1.0",
  "updatedAt": "2020-05-03T22:09:54.401Z",
  "networkType": "ethereum",
  "devdoc": {
    "methods": {}
  },
  "userdoc": {
    "methods": {}
  }
}